S214000000F3F3F3F3F3F3F3F3F3F3F3F3F3F3F3F3BB
S214000010F3F3F3F3F3F3F3F3596B5B6B5A6B5B6B2E
S214000020F3F3F3F3F3F3F3F3F3F3F3F3F3F3F3F39B
S214000030F3F3F3F3F3F3F3F3F3F3F3F3F3F3F3F38B
S214000040F3F3F3F3F3F3F3F3F3F3F3F3F3F3F3F37B
S214000050F3F3F3F3F3F3F3F3596B5B6B5F6B5B6BE9
S214000060F3F3F3F3F3F3F3F3F3F3F3F3F3F3F3F35B
S214000070F3F3F3F3F3F3F3F3F3F3F3F3F3F3F3F34B
S214000080F3F3F3F3F3F3F3F3F3F3F3F3F3F3F3F33B
S214000090F3F3F3F3F3F3F3F35B6B1B6B5B6B1B6B2B
S2140000A0F3F3F3F3F3F3F3F3F3F3F3F3F3F3F3F31B
S2140000B0F3F3F3F3F3F3F3F3F3F3F3F3F3F3F3F30B
S2140000C0F3F3F3F3F3F3F3F3F3F3F3F3F3F3F3F3FB
S2140000D0F3F3F3F3F3F3F3F35B6B1B6B5B6B1B6BEB
S2140000E0F3F3F3F3F3F3F3F3F3F3F3F3F3F3F3F3DB
S2140000F0F3F3F3F3F3F3F3F3F3F3F3F3F3F3F3F3CB
S214000100F3F3F3F3F3F3F3F3F3F3F3F3F3F3F3F3BA
S214000110F3F3F3F3F3F3F3F3F3F3F3F3F3F3F3F3AA
S214000120F3F3F3F3F3F3F3F3F3F3F3F3F3F3F3F39A
S214000130F3F3F3F3F3F3F3F3F3F3F3F3F3F3F3F38A
S214000140F3F3F3F3F3F3F3F3F3F3F3F3F3F3F3F37A
S214000150F3F3F3F3F3F3F3F3F3F3F3F3F3F3F3F36A
S214000160F3F3F3F3F3F3F3F3F3F3F3F3F3F3F3F35A
S214000170F3F3F3F3F3F3F3F3F3F3F3F3F3F3F3F34A
S214000180F3F3F3F3F3F3F3F3F3F3F3F3F3F3F3F33A
S214000190F3F3F3F3F3F3F3F3F3F3F3F3F3F3F3F32A
S2140001A0F3F3F3F3F3F3F3F3F3F3F3F3F3F3F3F31A
S2140001B0F3F3F3F3F3F3F3F3F3F3F3F3F3F3F3F30A
S2140001C0F3F3F3F3F3F3F3F3F3F3F3F3F3F3F3F3FA
S2140001D0F3F3F3F3F3F3F3F3F3F3F3F3F3F3F3F3EA
S2140001E0F3F3F3F3F3F3F3F3F3F3F3F3F3F3F3F3DA
S2140001F0F3F3F3F3F3F3F3F3F3F3F3F3F3F3F3F3CA
S9030000FC
