S214000000EFEFEF00EFEFEF00FDF5FD00FDF7FF006F
S214000010DDDDDD00FDFDFD00F9F9FD00FDFDF5006F
S214000020EFEFF700EFEFEF00FDF5FD00FDF7FF0047
S214000030DDDDDD00FDFDFD00F9F9FD00FDFDF5004F
S214000040EFEFFD00EFEFEF00FDF5FD00FDF7FF0021
S214000050DDDDDD00FDFDFD00BDBDBD00FDFDF500E7
S214000060EFEFFD00EFEFEF00FDF5FD00FDF7FF0001
S214000070DDDDDD00FDFDFD00BDBDBD00FDFDF500C7
S214000080F7EFFD00F7EFEF00FDF5FD00FDF7FF00D1
S214000090DDDDDD00FDFDFD00F9F9F9009F9F9F0005
S2140000A0F7EFFD00F7EFEF00FDF5FD00FDF7FF00B1
S2140000B0DDDDDD00FDFDFD00F9F9F900B8B8B8009A
S2140000C0F7EFFD00F7EFEF00FDF5FD00FDF7FF0091
S2140000D0DDDDDD00FDFDFD00F9F9F900F9F9F900B7
S2140000E0F7EFFD00F7EFEF00FDF5FD00FDF7FF0071
S2140000F0DDDDDD00FDFDFD00F8F8F800F9F9F9009A
S214000100AFEFEFEFEFEFEF00FDFDF5FDDFFDFD00DC
S214000110FDFDDDF9F9FDDD00DDFDF9F9F9FDF9007C
S214000120BDEFEFF7EFF7EF00FDFDF5FDDFFDFD009E
S214000130FDFDDDF9F9FDDD00DDFDF9F9F9FDF9005C
S214000140FDEFEFDFEFFDEF00FDFDF5FDDFFDFD0050
S214000150FDFDDDF9F9FDDD00DDF5F9F9F9BDF90084
S214000160FDEFEFFDEFFDEF00FDFDF5FDDFFDFD0012
S214000170FDFDDDF9F9FDDD00DDF5F9F9F9BDF90064
S214000180FDEFEFFDF7FDF700FDFDF5FDFDFDFD00C4
S214000190F5FDDDF9F9FDDD00F9DDF9F9F9DDF90028
S2140001A0FDEFEFFDF7FDF700FDFDF5FDFDFDFD00A4
S2140001B0F5FDDDF9F9FDDD00F9DDF9F9F9DDF90008
S2140001C0FDEFEFFDF7FDF700FDBDF5BDBDFDBD0084
S2140001D0F5FDDDF9F9FDDD00F9F9F9F9F9F9F900B0
S2140001E0FDEFEFFDF7FDF700FDBDF5BDBDFDBD0064
S2140001F0F5FDDDF9F9FDDD00F8F8F8F8F8F8F80097
S9030000FC
